{
  "contractName": "TokenAdapter",
  "abi": [
    {
      "constant": false,
      "inputs": [
        {
          "name": "name",
          "type": "string"
        },
        {
          "name": "symbol",
          "type": "string"
        }
      ],
      "name": "newToken",
      "outputs": [
        {
          "name": "tokenAddress",
          "type": "address"
        }
      ],
      "payable": false,
      "stateMutability": "nonpayable",
      "type": "function"
    },
    {
      "constant": true,
      "inputs": [
        {
          "name": "",
          "type": "bytes32"
        }
      ],
      "name": "curves",
      "outputs": [
        {
          "name": "",
          "type": "address"
        }
      ],
      "payable": false,
      "stateMutability": "view",
      "type": "function"
    },
    {
      "constant": true,
      "inputs": [],
      "name": "owner",
      "outputs": [
        {
          "name": "",
          "type": "address"
        }
      ],
      "payable": false,
      "stateMutability": "view",
      "type": "function"
    },
    {
      "constant": true,
      "inputs": [
        {
          "name": "x",
          "type": "bytes32"
        }
      ],
      "name": "bytes32ToString",
      "outputs": [
        {
          "name": "",
          "type": "string"
        }
      ],
      "payable": false,
      "stateMutability": "view",
      "type": "function"
    },
    {
      "constant": true,
      "inputs": [],
      "name": "coord",
      "outputs": [
        {
          "name": "",
          "type": "address"
        }
      ],
      "payable": false,
      "stateMutability": "view",
      "type": "function"
    },
    {
      "constant": false,
      "inputs": [
        {
          "name": "providerPubKey",
          "type": "uint256"
        },
        {
          "name": "providerTitle",
          "type": "bytes32"
        },
        {
          "name": "specifier",
          "type": "bytes32"
        },
        {
          "name": "symbol",
          "type": "bytes32"
        },
        {
          "name": "curve",
          "type": "int256[]"
        }
      ],
      "name": "initializeCurve",
      "outputs": [
        {
          "name": "",
          "type": "address"
        }
      ],
      "payable": false,
      "stateMutability": "nonpayable",
      "type": "function"
    },
    {
      "constant": true,
      "inputs": [],
      "name": "tokenFactory",
      "outputs": [
        {
          "name": "",
          "type": "address"
        }
      ],
      "payable": false,
      "stateMutability": "view",
      "type": "function"
    },
    {
      "constant": false,
      "inputs": [
        {
          "name": "newOwner",
          "type": "address"
        }
      ],
      "name": "transferOwnership",
      "outputs": [],
      "payable": false,
      "stateMutability": "nonpayable",
      "type": "function"
    },
    {
      "constant": true,
      "inputs": [],
      "name": "reserveToken",
      "outputs": [
        {
          "name": "",
          "type": "address"
        }
      ],
      "payable": false,
      "stateMutability": "view",
      "type": "function"
    },
    {
      "inputs": [
        {
          "name": "coordinator",
          "type": "address"
        },
        {
          "name": "tokenFactory",
          "type": "address"
        },
        {
          "name": "_acceptedToken",
          "type": "address"
        }
      ],
      "payable": false,
      "stateMutability": "nonpayable",
      "type": "constructor"
    },
    {
      "anonymous": false,
      "inputs": [
        {
          "indexed": false,
          "name": "tokenAddress",
          "type": "address"
        }
      ],
      "name": "DotTokenCreated",
      "type": "event"
    },
    {
      "anonymous": false,
      "inputs": [
        {
          "indexed": false,
          "name": "_address1",
          "type": "address"
        },
        {
          "indexed": false,
          "name": "address2",
          "type": "address"
        },
        {
          "indexed": false,
          "name": "_quant1",
          "type": "uint256"
        },
        {
          "indexed": false,
          "name": "_quant2",
          "type": "uint256"
        }
      ],
      "name": "Testing",
      "type": "event"
    },
    {
      "anonymous": false,
      "inputs": [
        {
          "indexed": false,
          "name": "q",
          "type": "uint256"
        }
      ],
      "name": "TestInt",
      "type": "event"
    },
    {
      "anonymous": false,
      "inputs": [
        {
          "indexed": true,
          "name": "previousOwner",
          "type": "address"
        },
        {
          "indexed": true,
          "name": "newOwner",
          "type": "address"
        }
      ],
      "name": "OwnershipTransferred",
      "type": "event"
    },
    {
      "constant": false,
      "inputs": [
        {
          "name": "rate",
          "type": "uint256"
        }
      ],
      "name": "setAdapterRate",
      "outputs": [],
      "payable": false,
      "stateMutability": "nonpayable",
      "type": "function"
    },
    {
      "constant": false,
      "inputs": [
        {
          "name": "wallet",
          "type": "address"
        },
        {
          "name": "specifier",
          "type": "bytes32"
        },
        {
          "name": "quantity",
          "type": "uint256"
        }
      ],
      "name": "ownerBond",
      "outputs": [],
      "payable": false,
      "stateMutability": "nonpayable",
      "type": "function"
    },
    {
      "constant": false,
      "inputs": [
        {
          "name": "wallet",
          "type": "address"
        },
        {
          "name": "specifier",
          "type": "bytes32"
        },
        {
          "name": "quantity",
          "type": "uint256"
        }
      ],
      "name": "ownerUnbond",
      "outputs": [],
      "payable": false,
      "stateMutability": "nonpayable",
      "type": "function"
    },
    {
      "constant": true,
      "inputs": [
        {
          "name": "specifier",
          "type": "bytes32"
        },
        {
          "name": "quantity",
          "type": "uint256"
        }
      ],
      "name": "getAdapterPrice",
      "outputs": [
        {
          "name": "",
          "type": "uint256"
        }
      ],
      "payable": false,
      "stateMutability": "view",
      "type": "function"
    }
  ],
  "bytecode": "0x60806040523480156200001157600080fd5b50604051606080620029848339810180604052810190808051906020019092919080519060200190929190805190602001909291905050508282336000806101000a81548173ffffffffffffffffffffffffffffffffffffffff021916908373ffffffffffffffffffffffffffffffffffffffff16021790555081600260006101000a81548173ffffffffffffffffffffffffffffffffffffffff021916908373ffffffffffffffffffffffffffffffffffffffff160217905550600260009054906101000a900473ffffffffffffffffffffffffffffffffffffffff1673ffffffffffffffffffffffffffffffffffffffff1663358177736040518163ffffffff167c01000000000000000000000000000000000000000000000000000000000281526004018080602001828103825260098152602001807f5a41505f544f4b454e0000000000000000000000000000000000000000000000815250602001915050602060405180830381600087803b1580156200018f57600080fd5b505af1158015620001a4573d6000803e3d6000fd5b505050506040513d6020811015620001bb57600080fd5b8101908080519060200190929190505050600160006101000a81548173ffffffffffffffffffffffffffffffffffffffff021916908373ffffffffffffffffffffffffffffffffffffffff160217905550600160009054906101000a900473ffffffffffffffffffffffffffffffffffffffff1673ffffffffffffffffffffffffffffffffffffffff1663095ea7b3600260009054906101000a900473ffffffffffffffffffffffffffffffffffffffff1673ffffffffffffffffffffffffffffffffffffffff1663358177736040518163ffffffff167c01000000000000000000000000000000000000000000000000000000000281526004018080602001828103825260078152602001807f424f4e4441474500000000000000000000000000000000000000000000000000815250602001915050602060405180830381600087803b1580156200030d57600080fd5b505af115801562000322573d6000803e3d6000fd5b505050506040513d60208110156200033957600080fd5b81019080805190602001909291905050506000196040518363ffffffff167c0100000000000000000000000000000000000000000000000000000000028152600401808373ffffffffffffffffffffffffffffffffffffffff1673ffffffffffffffffffffffffffffffffffffffff16815260200182815260200192505050602060405180830381600087803b158015620003d357600080fd5b505af1158015620003e8573d6000803e3d6000fd5b505050506040513d6020811015620003ff57600080fd5b81019080805190602001909291905050505080600360006101000a81548173ffffffffffffffffffffffffffffffffffffffff021916908373ffffffffffffffffffffffffffffffffffffffff160217905550505080600860006101000a81548173ffffffffffffffffffffffffffffffffffffffff021916908373ffffffffffffffffffffffffffffffffffffffff1602179055505050506124dc80620004a86000396000f3006080604052600436106100c5576000357c0100000000000000000000000000000000000000000000000000000000900463ffffffff168063346ee741146100ca5780634629ffea1461012557806366903e80146102145780636fbe28d1146102855780638da5cb5b146102e05780639201de55146103375780639495c25a146103e1578063a9e7046d14610438578063afcd23f014610465578063e77772fe1461053f578063f1d6fd6014610596578063f2fde38b146105e5578063f4325d6714610628575b600080fd5b3480156100d657600080fd5b50610123600480360381019080803573ffffffffffffffffffffffffffffffffffffffff16906020019092919080356000191690602001909291908035906020019092919050505061067f565b005b34801561013157600080fd5b506101d2600480360381019080803590602001908201803590602001908080601f0160208091040260200160405190810160405280939291908181526020018383808284378201915050505050509192919290803590602001908201803590602001908080601f01602080910402602001604051908101604052809392919081815260200183838082843782019150505050505091929192905050506106ea565b604051808273ffffffffffffffffffffffffffffffffffffffff1673ffffffffffffffffffffffffffffffffffffffff16815260200191505060405180910390f35b34801561022057600080fd5b50610243600480360381019080803560001916906020019092919050505061089a565b604051808273ffffffffffffffffffffffffffffffffffffffff1673ffffffffffffffffffffffffffffffffffffffff16815260200191505060405180910390f35b34801561029157600080fd5b506102de600480360381019080803573ffffffffffffffffffffffffffffffffffffffff1690602001909291908035600019169060200190929190803590602001909291905050506108cd565b005b3480156102ec57600080fd5b506102f5610938565b604051808273ffffffffffffffffffffffffffffffffffffffff1673ffffffffffffffffffffffffffffffffffffffff16815260200191505060405180910390f35b34801561034357600080fd5b50610366600480360381019080803560001916906020019092919050505061095d565b6040518080602001828103825283818151815260200191508051906020019080838360005b838110156103a657808201518184015260208101905061038b565b50505050905090810190601f1680156103d35780820380516001836020036101000a031916815260200191505b509250505060405180910390f35b3480156103ed57600080fd5b506103f66109ca565b604051808273ffffffffffffffffffffffffffffffffffffffff1673ffffffffffffffffffffffffffffffffffffffff16815260200191505060405180910390f35b34801561044457600080fd5b50610463600480360381019080803590602001909291905050506109f0565b005b34801561047157600080fd5b506104fd6004803603810190808035906020019092919080356000191690602001909291908035600019169060200190929190803560001916906020019092919080359060200190820180359060200190808060200260200160405190810160405280939291908181526020018383602002808284378201915050505050509192919290505050610a55565b604051808273ffffffffffffffffffffffffffffffffffffffff1673ffffffffffffffffffffffffffffffffffffffff16815260200191505060405180910390f35b34801561054b57600080fd5b50610554611041565b604051808273ffffffffffffffffffffffffffffffffffffffff1673ffffffffffffffffffffffffffffffffffffffff16815260200191505060405180910390f35b3480156105a257600080fd5b506105cf600480360381019080803560001916906020019092919080359060200190929190505050611067565b6040518082815260200191505060405180910390f35b3480156105f157600080fd5b50610626600480360381019080803573ffffffffffffffffffffffffffffffffffffffff1690602001909291905050506112c7565b005b34801561063457600080fd5b5061063d61141c565b604051808273ffffffffffffffffffffffffffffffffffffffff1673ffffffffffffffffffffffffffffffffffffffff16815260200191505060405180910390f35b6000809054906101000a900473ffffffffffffffffffffffffffffffffffffffff1673ffffffffffffffffffffffffffffffffffffffff163373ffffffffffffffffffffffffffffffffffffffff161415156106da57600080fd5b6106e5838383611442565b505050565b600080600360009054906101000a900473ffffffffffffffffffffffffffffffffffffffff1673ffffffffffffffffffffffffffffffffffffffff1663198e2b8a85856040518363ffffffff167c0100000000000000000000000000000000000000000000000000000000028152600401808060200180602001838103835285818151815260200191508051906020019080838360005b8381101561079c578082015181840152602081019050610781565b50505050905090810190601f1680156107c95780820380516001836020036101000a031916815260200191505b50838103825284818151815260200191508051906020019080838360005b838110156108025780820151818401526020810190506107e7565b50505050905090810190601f16801561082f5780820380516001836020036101000a031916815260200191505b50945050505050602060405180830381600087803b15801561085057600080fd5b505af1158015610864573d6000803e3d6000fd5b505050506040513d602081101561087a57600080fd5b810190808051906020019092919050505090508091508191505092915050565b60046020528060005260406000206000915054906101000a900473ffffffffffffffffffffffffffffffffffffffff1681565b6000809054906101000a900473ffffffffffffffffffffffffffffffffffffffff1673ffffffffffffffffffffffffffffffffffffffff163373ffffffffffffffffffffffffffffffffffffffff1614151561092857600080fd5b610933838383611c7b565b505050565b6000809054906101000a900473ffffffffffffffffffffffffffffffffffffffff1681565b60608060206040519080825280601f01601f1916602001820160405280156109945781602001602082028038833980820191505090505b50905082604051602001808260001916600019168152602001915050604051602081830303815290604052905080915050919050565b600260009054906101000a900473ffffffffffffffffffffffffffffffffffffffff1681565b6000809054906101000a900473ffffffffffffffffffffffffffffffffffffffff1673ffffffffffffffffffffffffffffffffffffffff163373ffffffffffffffffffffffffffffffffffffffff16141515610a4b57600080fd5b8060098190555050565b600080600060046000876000191660001916815260200190815260200160002060009054906101000a900473ffffffffffffffffffffffffffffffffffffffff1673ffffffffffffffffffffffffffffffffffffffff16141515610b21576040517f08c379a000000000000000000000000000000000000000000000000000000000815260040180806020018281038252601e8152602001807f43757276652073706563696669657220616c726561647920657869737473000081525060200191505060405180910390fd5b600260009054906101000a900473ffffffffffffffffffffffffffffffffffffffff1673ffffffffffffffffffffffffffffffffffffffff1663358177736040518163ffffffff167c01000000000000000000000000000000000000000000000000000000000281526004018080602001828103825260088152602001807f5245474953545259000000000000000000000000000000000000000000000000815250602001915050602060405180830381600087803b158015610be357600080fd5b505af1158015610bf7573d6000803e3d6000fd5b505050506040513d6020811015610c0d57600080fd5b810190808051906020019092919050505090508073ffffffffffffffffffffffffffffffffffffffff1663186b79c9306040518263ffffffff167c0100000000000000000000000000000000000000000000000000000000028152600401808273ffffffffffffffffffffffffffffffffffffffff1673ffffffffffffffffffffffffffffffffffffffff168152602001915050602060405180830381600087803b158015610cbb57600080fd5b505af1158015610ccf573d6000803e3d6000fd5b505050506040513d6020811015610ce557600080fd5b81019080805190602001909291905050501515610db8578073ffffffffffffffffffffffffffffffffffffffff1663af87c83388886040518363ffffffff167c010000000000000000000000000000000000000000000000000000000002815260040180838152602001826000191660001916815260200192505050602060405180830381600087803b158015610d7b57600080fd5b505af1158015610d8f573d6000803e3d6000fd5b505050506040513d6020811015610da557600080fd5b8101908080519060200190929190505050505b8073ffffffffffffffffffffffffffffffffffffffff1663238b3aed8685306040518463ffffffff167c0100000000000000000000000000000000000000000000000000000000028152600401808460001916600019168152602001806020018373ffffffffffffffffffffffffffffffffffffffff1673ffffffffffffffffffffffffffffffffffffffff168152602001828103825284818151815260200191508051906020019060200280838360005b83811015610e85578082015181840152602081019050610e6a565b50505050905001945050505050602060405180830381600087803b158015610eac57600080fd5b505af1158015610ec0573d6000803e3d6000fd5b505050506040513d6020811015610ed657600080fd5b810190808051906020019092919050505050610f02610ef48661095d565b610efd8661095d565b6106ea565b60046000876000191660001916815260200190815260200160002060006101000a81548173ffffffffffffffffffffffffffffffffffffffff021916908373ffffffffffffffffffffffffffffffffffffffff1602179055507f6c98c7e1fb155d4c2c1f008682fd94fb74d1c9667207aaaa9ab65cee2b38ea7a60046000876000191660001916815260200190815260200160002060009054906101000a900473ffffffffffffffffffffffffffffffffffffffff16604051808273ffffffffffffffffffffffffffffffffffffffff1673ffffffffffffffffffffffffffffffffffffffff16815260200191505060405180910390a160046000866000191660001916815260200190815260200160002060009054906101000a900473ffffffffffffffffffffffffffffffffffffffff1691505095945050505050565b600360009054906101000a900473ffffffffffffffffffffffffffffffffffffffff1681565b600080600260009054906101000a900473ffffffffffffffffffffffffffffffffffffffff1673ffffffffffffffffffffffffffffffffffffffff1663358177736040518163ffffffff167c01000000000000000000000000000000000000000000000000000000000281526004018080602001828103825260078152602001807f424f4e4441474500000000000000000000000000000000000000000000000000815250602001915050602060405180830381600087803b15801561112c57600080fd5b505af1158015611140573d6000803e3d6000fd5b505050506040513d602081101561115657600080fd5b8101908080519060200190929190505050600760006101000a81548173ffffffffffffffffffffffffffffffffffffffff021916908373ffffffffffffffffffffffffffffffffffffffff160217905550600760009054906101000a900473ffffffffffffffffffffffffffffffffffffffff1673ffffffffffffffffffffffffffffffffffffffff1663b6105f153086866040518463ffffffff167c0100000000000000000000000000000000000000000000000000000000028152600401808473ffffffffffffffffffffffffffffffffffffffff1673ffffffffffffffffffffffffffffffffffffffff16815260200183600019166000191681526020018281526020019350505050602060405180830381600087803b15801561127c57600080fd5b505af1158015611290573d6000803e3d6000fd5b505050506040513d60208110156112a657600080fd5b81019080805190602001909291905050509050600954810291505092915050565b6000809054906101000a900473ffffffffffffffffffffffffffffffffffffffff1673ffffffffffffffffffffffffffffffffffffffff163373ffffffffffffffffffffffffffffffffffffffff1614151561132257600080fd5b600073ffffffffffffffffffffffffffffffffffffffff168173ffffffffffffffffffffffffffffffffffffffff161415151561135e57600080fd5b8073ffffffffffffffffffffffffffffffffffffffff166000809054906101000a900473ffffffffffffffffffffffffffffffffffffffff1673ffffffffffffffffffffffffffffffffffffffff167f8be0079c531659141344cd1fd0a4f28419497f9722a3daafe3b4186f6b6457e060405160405180910390a3806000806101000a81548173ffffffffffffffffffffffffffffffffffffffff021916908373ffffffffffffffffffffffffffffffffffffffff16021790555050565b600160009054906101000a900473ffffffffffffffffffffffffffffffffffffffff1681565b6000806000600860009054906101000a900473ffffffffffffffffffffffffffffffffffffffff1673ffffffffffffffffffffffffffffffffffffffff166323b872dd87306114918989611067565b6040518463ffffffff167c0100000000000000000000000000000000000000000000000000000000028152600401808473ffffffffffffffffffffffffffffffffffffffff1673ffffffffffffffffffffffffffffffffffffffff1681526020018373ffffffffffffffffffffffffffffffffffffffff1673ffffffffffffffffffffffffffffffffffffffff1681526020018281526020019350505050602060405180830381600087803b15801561154957600080fd5b505af115801561155d573d6000803e3d6000fd5b505050506040513d602081101561157357600080fd5b8101908080519060200190929190505050151561161e576040517f08c379a000000000000000000000000000000000000000000000000000000000815260040180806020018281038252603a8152602001807f696e73756666696369656e7420616363657074656420746f6b656e207175616e81526020017f7469747920617070726f76656420666f72207472616e7366657200000000000081525060400191505060405180910390fd5b600760009054906101000a900473ffffffffffffffffffffffffffffffffffffffff1673ffffffffffffffffffffffffffffffffffffffff16631d7b5e2230876040518363ffffffff167c0100000000000000000000000000000000000000000000000000000000028152600401808373ffffffffffffffffffffffffffffffffffffffff1673ffffffffffffffffffffffffffffffffffffffff168152602001826000191660001916815260200192505050602060405180830381600087803b1580156116eb57600080fd5b505af11580156116ff573d6000803e3d6000fd5b505050506040513d602081101561171557600080fd5b81019080805190602001909291905050509250600260009054906101000a900473ffffffffffffffffffffffffffffffffffffffff1673ffffffffffffffffffffffffffffffffffffffff1663358177736040518163ffffffff167c010000000000000000000000000000000000000000000000000000000002815260040180806020018281038252600c8152602001807f43555252454e545f434f53540000000000000000000000000000000000000000815250602001915050602060405180830381600087803b1580156117ea57600080fd5b505af11580156117fe573d6000803e3d6000fd5b505050506040513d602081101561181457600080fd5b810190808051906020019092919050505091508173ffffffffffffffffffffffffffffffffffffffff1663197d66d5308760018701600189036040518563ffffffff167c0100000000000000000000000000000000000000000000000000000000028152600401808573ffffffffffffffffffffffffffffffffffffffff1673ffffffffffffffffffffffffffffffffffffffff1681526020018460001916600019168152602001838152602001828152602001945050505050602060405180830381600087803b1580156118e857600080fd5b505af11580156118fc573d6000803e3d6000fd5b505050506040513d602081101561191257600080fd5b81019080805190602001909291905050509050600160009054906101000a900473ffffffffffffffffffffffffffffffffffffffff1673ffffffffffffffffffffffffffffffffffffffff1663095ea7b3600760009054906101000a900473ffffffffffffffffffffffffffffffffffffffff16836040518363ffffffff167c0100000000000000000000000000000000000000000000000000000000028152600401808373ffffffffffffffffffffffffffffffffffffffff1673ffffffffffffffffffffffffffffffffffffffff16815260200182815260200192505050602060405180830381600087803b158015611a0c57600080fd5b505af1158015611a20573d6000803e3d6000fd5b505050506040513d6020811015611a3657600080fd5b810190808051906020019092919050505050600760009054906101000a900473ffffffffffffffffffffffffffffffffffffffff1673ffffffffffffffffffffffffffffffffffffffff166399275cc73087876040518463ffffffff167c0100000000000000000000000000000000000000000000000000000000028152600401808473ffffffffffffffffffffffffffffffffffffffff1673ffffffffffffffffffffffffffffffffffffffff16815260200183600019166000191681526020018281526020019350505050602060405180830381600087803b158015611b1d57600080fd5b505af1158015611b31573d6000803e3d6000fd5b505050506040513d6020811015611b4757600080fd5b81019080805190602001909291905050505060046000866000191660001916815260200190815260200160002060009054906101000a900473ffffffffffffffffffffffffffffffffffffffff1673ffffffffffffffffffffffffffffffffffffffff166340c10f1987866040518363ffffffff167c0100000000000000000000000000000000000000000000000000000000028152600401808373ffffffffffffffffffffffffffffffffffffffff1673ffffffffffffffffffffffffffffffffffffffff16815260200182815260200192505050602060405180830381600087803b158015611c3757600080fd5b505af1158015611c4b573d6000803e3d6000fd5b505050506040513d6020811015611c6157600080fd5b810190808051906020019092919050505050505050505050565b6000806000600260009054906101000a900473ffffffffffffffffffffffffffffffffffffffff1673ffffffffffffffffffffffffffffffffffffffff1663358177736040518163ffffffff167c01000000000000000000000000000000000000000000000000000000000281526004018080602001828103825260078152602001807f424f4e4441474500000000000000000000000000000000000000000000000000815250602001915050602060405180830381600087803b158015611d4257600080fd5b505af1158015611d56573d6000803e3d6000fd5b505050506040513d6020811015611d6c57600080fd5b8101908080519060200190929190505050600760006101000a81548173ffffffffffffffffffffffffffffffffffffffff021916908373ffffffffffffffffffffffffffffffffffffffff160217905550600760009054906101000a900473ffffffffffffffffffffffffffffffffffffffff1673ffffffffffffffffffffffffffffffffffffffff16631d7b5e2230876040518363ffffffff167c0100000000000000000000000000000000000000000000000000000000028152600401808373ffffffffffffffffffffffffffffffffffffffff1673ffffffffffffffffffffffffffffffffffffffff168152602001826000191660001916815260200192505050602060405180830381600087803b158015611e8a57600080fd5b505af1158015611e9e573d6000803e3d6000fd5b505050506040513d6020811015611eb457600080fd5b81019080805190602001909291905050509250600260009054906101000a900473ffffffffffffffffffffffffffffffffffffffff1673ffffffffffffffffffffffffffffffffffffffff1663358177736040518163ffffffff167c010000000000000000000000000000000000000000000000000000000002815260040180806020018281038252600c8152602001807f43555252454e545f434f53540000000000000000000000000000000000000000815250602001915050602060405180830381600087803b158015611f8957600080fd5b505af1158015611f9d573d6000803e3d6000fd5b505050506040513d6020811015611fb357600080fd5b8101908080519060200190929190505050600560006101000a81548173ffffffffffffffffffffffffffffffffffffffff021916908373ffffffffffffffffffffffffffffffffffffffff160217905550600560009054906101000a900473ffffffffffffffffffffffffffffffffffffffff1673ffffffffffffffffffffffffffffffffffffffff1663197d66d53087876001880103600189036040518563ffffffff167c0100000000000000000000000000000000000000000000000000000000028152600401808573ffffffffffffffffffffffffffffffffffffffff1673ffffffffffffffffffffffffffffffffffffffff1681526020018460001916600019168152602001838152602001828152602001945050505050602060405180830381600087803b1580156120e957600080fd5b505af11580156120fd573d6000803e3d6000fd5b505050506040513d602081101561211357600080fd5b81019080805190602001909291905050509150600760009054906101000a900473ffffffffffffffffffffffffffffffffffffffff1673ffffffffffffffffffffffffffffffffffffffff1663a06fe7753087876040518463ffffffff167c0100000000000000000000000000000000000000000000000000000000028152600401808473ffffffffffffffffffffffffffffffffffffffff1673ffffffffffffffffffffffffffffffffffffffff16815260200183600019166000191681526020018281526020019350505050602060405180830381600087803b1580156121fb57600080fd5b505af115801561220f573d6000803e3d6000fd5b505050506040513d602081101561222557600080fd5b81019080805190602001909291905050505060046000866000191660001916815260200190815260200160002060009054906101000a900473ffffffffffffffffffffffffffffffffffffffff1690508073ffffffffffffffffffffffffffffffffffffffff166379cc679087866040518363ffffffff167c0100000000000000000000000000000000000000000000000000000000028152600401808373ffffffffffffffffffffffffffffffffffffffff1673ffffffffffffffffffffffffffffffffffffffff16815260200182815260200192505050600060405180830381600087803b15801561231857600080fd5b505af115801561232c573d6000803e3d6000fd5b50505050600860009054906101000a900473ffffffffffffffffffffffffffffffffffffffff1673ffffffffffffffffffffffffffffffffffffffff1663a9059cbb8760095485026040518363ffffffff167c0100000000000000000000000000000000000000000000000000000000028152600401808373ffffffffffffffffffffffffffffffffffffffff1673ffffffffffffffffffffffffffffffffffffffff16815260200182815260200192505050602060405180830381600087803b1580156123f957600080fd5b505af115801561240d573d6000803e3d6000fd5b505050506040513d602081101561242357600080fd5b810190808051906020019092919050505015156124a8576040517f08c379a00000000000000000000000000000000000000000000000000000000081526004018080602001828103825260168152602001807f4572726f723a205472616e73666572206661696c65640000000000000000000081525060200191505060405180910390fd5b5050505050505600a165627a7a723058200c819ca6bb324b226ec14ea76e8b9c1656478087a5257635d763060ee76ae8c10029",
  "source": "import \"../../platform/bondage/currentCost/CurrentCostInterface.sol\";\nimport \"./ERCDotFactory.sol\";\n\ncontract TokenAdapter is ERCDotFactory {\n\n    CurrentCostInterface currentCost;\n    RegistryInterface registry;\n    BondageInterface bondage;\n    FactoryTokenInterface acceptedToken;\n    \n    uint adapterRate;\n\n    constructor(address coordinator, address tokenFactory, FactoryTokenInterface _acceptedToken)\n    ERCDotFactory(coordinator, tokenFactory) {\n        acceptedToken = _acceptedToken;\n    }\n\n    function setAdapterRate(uint rate) public onlyOwner {\n        //children must set this\n        adapterRate = rate;\n    } \n\n    function ownerBond(address wallet, bytes32 specifier, uint quantity) public onlyOwner {\n        bond(wallet, specifier, quantity);\n    }\n\n    function ownerUnbond(address wallet, bytes32 specifier, uint quantity) public onlyOwner {\n        unbond(wallet, specifier, quantity);\n    }\n\n    //Override\n    function bond(address wallet, bytes32 specifier, uint quantity) internal {\n        require(\n            acceptedToken.transferFrom(wallet, address(this), getAdapterPrice(specifier, quantity)),\n            \"insufficient accepted token quantity approved for transfer\"\n        );\n\n        uint256 issued = bondage.getDotsIssued(address(this), specifier);\n\n        CurrentCostInterface cost = CurrentCostInterface(coord.getContract(\"CURRENT_COST\"));\n        uint256 numReserve = cost._costOfNDots(address(this), specifier, issued + 1, quantity - 1);\n\n        reserveToken.approve(address(bondage), numReserve);\n        bondage.bond(address(this), specifier, quantity);\n\n        FactoryTokenInterface(curves[specifier]).mint(wallet, quantity);\n    }\n\n    //Override\n    function unbond(address wallet, bytes32 specifier, uint quantity) internal {\n        bondage = BondageInterface(coord.getContract(\"BONDAGE\"));\n        uint issued = bondage.getDotsIssued(address(this), specifier);\n\n        currentCost = CurrentCostInterface(coord.getContract(\"CURRENT_COST\"));\n        uint reserveCost = currentCost._costOfNDots(address(this), specifier, issued + 1 - quantity, quantity - 1);\n\n\n        //unbond dots\n        bondage.unbond(address(this), specifier, quantity);\n        //burn dot backed token\n        FactoryTokenInterface curveToken = FactoryTokenInterface(curves[specifier]);\n        curveToken.burnFrom(wallet, quantity);\n\n        require(acceptedToken.transfer(wallet, reserveCost * adapterRate), \"Error: Transfer failed\");\n    }\n\n    function getAdapterPrice(bytes32 specifier, uint quantity) view returns(uint){\n        bondage = BondageInterface(coord.getContract(\"BONDAGE\")); \n        uint reserveAmount = bondage.calcZapForDots(address(this), specifier, quantity);\n        return reserveAmount * adapterRate;\n    }\n}\n",
  "sourcePath": "/home/kim/Code/ZAP/zap-ethereum-api/contracts/lib/platform/TokenAdapter.sol",
  "compiler": {
    "name": "solc",
    "version": "0.4.24+commit.e67f0147.Emscripten.clang"
  },
  "schemaVersion": "2.0.1",
  "updatedAt": "2018-12-29T23:03:37.470Z"
}